:100113004C454420313A4F4E0D0A004C45442032A1
:100123003A4F4E0D0A004C454420333A4F4E0D0AC8
:10013300004C454420343A4F4E0D0A004C454420B0
:10014300353A4F4E0D0A004C454420363A4F4E0D7A
:100153000A004C454420373A4F4E0D0A004C4544A3
:1001630020383A4F4E0D0A004C454420313A204F77
:1001730046460D0A004C454420323A204F46460D70
:100183000A004C454420333A204F46460D0A004CA2
:10019300454420343A204F46460D0A004C4544203E
:1001A300353A204F46460D0A004C454420363A2046
:1001B3004F46460D0A004C454420373A204F4646E9
:1001C3000D0A004C454420383A204F46460D0A009C
:10028E000308FF0113030BFF011E030EFF012903D9
:10029E0011FF01340314FF013F0317FF014A031A34
:0802AE00FF0155031DFF016073
:100026001202B712001CEF24CFB4080050F590005E
:100036004275F003A4C58325F0C5837302005A02F6
:10004600007102008702009D0200B30200C902008F
:10005600DF0200F9B2903090097BFF7A01796B12CA
:10006600025FAB08AA09A90A0200F3B2913091090E
:100076007BFF7A01797812025FAB0BAA0CA90D807F
:100086006CB2923092097BFF7A01798512025FABDE
:100096000EAA0FA9108056B2933093097BFF7A01FE
:1000A600799212025FAB11AA12A9138040B2943062
:1000B60094097BFF7A01799F12025FAB14AA15A9F6
:1000C60016802AB2953095097BFF7A0179AC120227
:1000D6005FAB17AA18A9198014B2963096097BFF50
:1000E6007A0179B912025FAB1AAA1BA91C12025F28
:1000F600020029B2973097097BFF7A0179C612026E
:0D0106005FAB1DAA1EA91F12025F02002997
:1002B700758920759850758780758DFF858D8BD2D0
:0802C7008ED2ACD2AFC2AB2213
:03001C00AF2522EB
:030023000202CF07
:0C02CF00309808C29885992575240132EA
:0802DB008F993099FDC29922B0
:10025F008B218A228923E5246021AB21AA22A9239D
:10026F0012000360160523E5237002052214F9120C
:0F027F000003F5993099FDC29980DFE4F5242240
:030000000201D327
:0C01D300787FE4F6D8FD75812502021A41
:10000300BB010689828A83E0225002E722BBFE02FB
:09001300E32289828A83E493222E
:1001DF00020026E493A3F8E493A34003F68001F210
:1001EF0008DFF48029E493A3F85407240CC8C33321
:1001FF00C4540F4420C8834004F456800146F6DFF0
:10020F00E4800B010204081020408090028EE47EEF
:10021F00019360BCA3FF543F30E509541FFEE493E4
:10022F00A360010ECF54C025E060A840B8E493A3AB
:10023F00FAE493A3F8E493A3C8C582C8CAC583CAD6
:10024F00F0A3C8C582C8CAC583CADFE9DEE780BE8E
:0102B6000047
:00000001FF
