:100113004C454420313A4F4E004C454420323A4F2F
:100123004E004C454420333A4F4E004C4544203456
:100133003A4F4E004C454420353A4F4E004C45440F
:1001430020363A4F4E004C454420373A4F4E004C30
:10015300454420383A4F4E004C454420313A204F15
:100163004646004C454420323A204F4646004C4513
:100173004420333A204F4646004C454420343A202D
:100183004F4646004C454420353A204F4646004CE6
:10019300454420363A204F4646004C454420373AE2
:1001A300204F4646004C454420383A204F464600EF
:10026E000308FF0113030BFF011C030EFF012503FF
:10027E0011FF012E0314FF01370317FF0140031A6C
:08028E00FF0149031DFF0152AD
:1000260012029712001CEF24CFB4080050F590007E
:100036004275F003A4C58325F0C5837302005A02F6
:10004600007102008702009D0200B30200C902008F
:10005600DF0200F9B2903090097BFF7A01795B12DA
:10006600023FAB08AA09A90A0200F3B2913091092E
:100076007BFF7A01796612023FAB0BAA0CA90D80B1
:100086006CB2923092097BFF7A01797112023FAB12
:100096000EAA0FA9108056B2933093097BFF7A01FE
:1000A600797C12023FAB11AA12A9138040B2943098
:1000B60094097BFF7A01798712023FAB14AA15A92E
:1000C60016802AB2953095097BFF7A017992120241
:1000D6003FAB17AA18A9198014B2963096097BFF70
:1000E6007A01799D12023FAB1AAA1BA91C12023F84
:1000F600020029B2973097097BFF7A0179A812028C
:0D0106003FAB1DAA1EA91F12023F020029D7
:10029700758920759850758780758DFF858D8BD2F0
:0802A7008ED2ACD2AFC2AB2233
:03001C00AF2522EB
:030023000202AF27
:0C02AF00309808C298859925752401320A
:0802BB008F993099FDC29922D0
:10023F008B218A228923E5246021AB21AA22A923BD
:10024F0012000360160523E5237002052214F9122C
:0F025F000003F5993099FDC29980DFE4F5242260
:030000000201B347
:0C01B300787FE4F6D8FD7581250201FA82
:10000300BB010689828A83E0225002E722BBFE02FB
:09001300E32289828A83E493222E
:1001BF00020026E493A3F8E493A34003F68001F230
:1001CF0008DFF48029E493A3F85407240CC8C33341
:1001DF00C4540F4420C8834004F456800146F6DF10
:1001EF00E4800B010204081020408090026EE47E30
:1001FF00019360BCA3FF543F30E509541FFEE49305
:10020F00A360010ECF54C025E060A840B8E493A3CB
:10021F00FAE493A3F8E493A3C8C582C8CAC583CAF6
:10022F00F0A3C8C582C8CAC583CADFE9DEE780BEAE
:010296000067
:00000001FF
