:1000B2004C454420313A4F4E004C454420323A4F91
:1000C2004E004C454420333A4F4E004C45442034B8
:1000D2003A4F4E004C454420353A4F4E004C454471
:1000E20020363A4F4E004C454420373A4F4E004C92
:1000F200454420383A4F4E004C454420313A204F77
:0E0102004646004C454420323A204F46460007
:10017F000308FF00B2030BFF00BB030EFF00C40315
:10018F0011FF00CD0314FF00D60317FF00DF031A82
:08019F00FF00E8031DFF00F161
:100110001201A812001CEF24CE601C0470F5B290EE
:100120003090097BFF7A0079FA120150AB08AA09D6
:10013000A90A12015080DCB2913091097BFF7A014B
:100140007905120150AB0BAA0CA90D12015080C306
:1001A800758920759850758780758DFF858D8BD2E0
:0801B8008ED2ACD2AFC2AB2223
:03001C00AF2522EB
:030023000201C017
:0C01C000309808C29885992575240132FA
:0801CC008F993099FDC29922C0
:100150008B218A228923E5246021AB21AA22A923AD
:1001600012000360160523E5237002052214F9121C
:0F0170000003F5993099FDC29980DFE4F5242250
:03000000020026D5
:0C002600787FE4F6D8FD75812502006D9E
:10000300BB010689828A83E0225002E722BBFE02FB
:09001300E32289828A83E493222E
:10003200020110E493A3F8E493A34003F68001F2D3
:1000420008DFF48029E493A3F85407240CC8C333CF
:10005200C4540F4420C8834004F456800146F6DF9E
:10006200E4800B010204081020408090017FE47EAE
:10007200019360BCA3FF543F30E509541FFEE49393
:10008200A360010ECF54C025E060A840B8E493A35A
:10009200FAE493A3F8E493A3C8C582C8CAC583CA85
:1000A200F0A3C8C582C8CAC583CADFE9DEE780BE3D
:0101A7000057
:00000001FF
