:100149004C454420313A4F4E0D0A004C454420316C
:100159003A4F46460D0A004C454420323A4F4E0D5F
:100169000A004C454420323A4F46460D0A004C4598
:100179004420333A4F4E0D0A004C454420333A4F40
:1001890046460D0A004C454420343A4F4E0D0A00AC
:100199004C454420343A4F46460D0A004C4544200C
:1001A900353A4F4E0D0A004C454420353A4F4646E4
:1001B9000D0A004C454420363A4F4E0D0A004C4575
:1001C9004420363A4F46460D0A004C454420373AFA
:1001D9004F4E0D0A004C454420373A4F46460D0A0A
:1001E900004C454420383A4F4E0D0A004C454420F6
:1001F900383A4F46460D0A00C0F9A4B0999282F8E0
:0C02090080908883C6A1868EEFDFBF7F47
:1003CA000308FF01490321FF0154030BFF016003E6
:1003DA0024FF016B030EFF01770327FF018203113C
:1003EA00FF018E032AFF01990314FF01A5032EFFC3
:1003FA0001B00317FF01BC0331FF01C7031AFF0154
:10040A00D30334FF01DE031DFF01EA0337FF01F5C1
:03041A00012D00B1
:10002600120003AF2D120215120459EF24CFB408A3
:100036000050F090004775F003A4C58325F0C583F2
:100046007302005F02007C0200990200B50200D133
:100056000200ED020109020129B290752D013090CE
:100066000CE4F52DAB21AA22A92312041EAB08AA83
:1000760009A90A020123B291752D0230910CAB2415
:10008600AA25A92612041EE4F52DAB0BAA0CA90D70
:10009600020123B292752D0330920CAB27AA28A930
:1000A6002912041EE4F52DAB0EAA0FA910806EB21C
:1000B60093752D0430930CAB2AAA2BA92C12041E7F
:1000C600E4F52DAB11AA12A9138052B294752D0531
:1000D60030940CAB2EAA2FA93012041EE4F52DABDA
:1000E60014AA15A9168036B295752D0630950CAB57
:1000F60031AA32A93312041EE4F52DAB17AA18A9AA
:1001060019801AB296752D0730960CAB34AA35A90C
:100116003612041EE4F52DAB1AAA1BA91C12041EE6
:10012600020029B297E4F52D30970CAB37AA38A90F
:100136003912041EE4F52DAB1DAA1EA91F12041EBA
:030146000200298B
:10021500EF75F00A84E5F0753A00F53BEF75F00AE5
:100225008475F00A84E5F0753C00F53DEF75F064E2
:100235008475F00A84E5F0753E00F53F7E007C0389
:100245007DE81203758E408F41E4FFEFFDC39404F2
:10025500748094805074EF90021193F5A07580FF1F
:10026500ED640370107401253BF5827402353AF58F
:1002750083E493F580EFFD7C006402701074012522
:100285003DF5827402353CF583E493F580ED640118
:100295004C70107401253FF5827402353EF583E4F8
:1002A50093F580EF701074012541F5827402354095
:1002B500F583E493F5807D0A7C00ED1DAA047001A9
:0A02C5001C4A70F67580FF0F80815F
:0102CF00220C
:10000300758920759850758780758DFF858D8BD286
:080013008ED2ACD2AFC2AB22C9
:03045900AF43228C
:0300230002044D87
:0C044D00309808C298859943754201322E
:08001B008F993099FDC2992272
:10041E008B3A8A3B893CE5426021AB3AAA3BA93C28
:10042E0012035C6016053CE53C7002053B14F912A4
:0F043E00035CF5993099FDC29980DFE4F5422205
:030000000202D029
:0C02D000787FE4F6D8FD75814302031727
:10035C00BB010689828A83E0225002E722BBFE029F
:09036C00E32289828A83E49322D2
:10037500BC000BBE0029EF8DF084FFADF022E4CC6C
:10038500F875F008EF2FFFEE33FEEC33FCEE9DEC35
:10039500984005FCEE9DFE0FD5F0E9E4CEFD22ED7B
:1003A500F8F5F0EE8420D21CFEADF075F008EF2FC5
:1003B500FFED33FD4007985006D5F0F222C398FDB6
:0503C5000FD5F0EA2253
:1002DC00020026E493A3F8E493A34003F68001F212
:1002EC0008DFF48029E493A3F85407240CC8C33323
:1002FC00C4540F4420C8834004F456800146F6DFF2
:10030C00E4800B01020408102040809003CAE47EB4
:10031C00019360BCA3FF543F30E509541FFEE493E6
:10032C00A360010ECF54C025E060A840B8E493A3AD
:10033C00FAE493A3F8E493A3C8C582C8CAC583CAD8
:10034C00F0A3C8C582C8CAC583CADFE9DEE780BE90
:01041D0000DE
:00000001FF
